:020000040800F2
:1000000000000220355F0008D91B0008DB1B000838
:10001000DD1B0008DF1B0008E11B000800000000DA
:1000200000000000000000000000000081570008F0
:10003000E31B0008000000002158000817530008C7
:10004000855F0008855F0008855F0008855F000800
:10005000855F0008855F0008855F0008855F0008F0
:10006000855F0008855F0008855F0008855F0008E0
:10007000855F0008855F0008855F0008855F0008D0
:10008000E51B0008F51B0008855F0008855F000878
:10009000855F0008855F0008855F0008855F0008B0
:1000A000855F0008051C0008855F0008855F000863
:1000B000855F0008855F0008855F0008855F000890
:1000C000855F0008855F0008855F0008855F000880
:1000D000855F0008855F0008151C0008855F000823
:1000E000855F0008855F0008855F0008855F000860
:1000F000855F0008855F0008855F0008855F000850
:10010000855F0008855F0008855F0008855F00083F
:10011000855F0008855F0008855F0008855F00082F
:10012000855F0008855F0008855F0008855F00081F
:10013000855F0008855F0008855F0008855F00080F
:10014000855F0008855F0008855F0008855F0008FF
:10015000855F0008855F0008855F0008855F0008EF
:10016000855F0008855F0008855F0008855F0008DF
:10017000855F0008855F0008855F000800000000BB
:08018000855F0008855F00089F
:1001900010B5054C237833B9044B13B10448AFF3C1
:1001A00000800123237010BDF00200200000000039
:1001B000141D010808B5034B1BB103490348AFF3F5
:1001C000008008BD00000000F4020020141D01089A
:1001D00001F0FF01102A2BDB10F0070F08D010F8F8
:1001E000013B013A8B422DD010F0070F42B3F6D1FC
:1001F000F0B441EA012141EA014122F007047FF015
:1002000000070023F0E80256083C85EA010586EA6B
:10021000010685FA47F5A3FA87F586FA47F6A5FAA7
:1002200087F68EB9EED1F0BC01F0FF0102F00702B3
:1002300032B110F8013B013A83EA010313B1F8D15E
:100240000020704701387047002D06BF354603383F
:10025000073815F0010F07D1013015F4807F02BF78
:10026000013015F4C03F0130F0BC0138704700BFC9
:1002700081F0004102E000BF83F0004330B54FEA57
:1002800041044FEA430594EA050F08BF90EA020FC4
:100290001FBF54EA000C55EA020C7FEA645C7FEA57
:1002A000655C00F0E2804FEA5454D4EB5555B8BF7A
:1002B0006D420CDD2C4480EA020281EA030382EAEB
:1002C000000083EA010180EA020281EA0303362D7D
:1002D00088BF30BD11F0004F4FEA01314FF4801C50
:1002E0004CEA113102D0404261EB410113F0004F62
:1002F0004FEA03334CEA133302D0524263EB430319
:1003000094EA050F00F0A780A4F10104D5F1200EB6
:100310000DDB02FA0EFC22FA05F2801841F1000111
:1003200003FA0EF2801843FA05F359410EE0A5F1E5
:1003300020050EF1200E012A03FA0EFC28BF4CF016
:10034000020C43FA05F3C01851EBE37101F00045CC
:1003500007D54FF0000EDCF1000C7EEB00006EEBD9
:100360000101B1F5801F1BD3B1F5001F0CD3490863
:100370005FEA30004FEA3C0C04F101044FEA4452BA
:1003800012F5800F80F09A80BCF1004F08BF5FEA41
:10039000500C50F1000041EB045141EA050130BD21
:1003A0005FEA4C0C404141EB0101013C28BFB1F533
:1003B000801FE9D291F0000F04BF01460020B1FA7E
:1003C00081F308BF2033A3F10B03B3F120020CDA51
:1003D0000C3208DD02F1140CC2F10C0201FA0CF02F
:1003E00021FA02F10CE002F11402D8BFC2F1200C94
:1003F00001FA02F120FA0CFCDCBF41EA0C0190404A
:10040000E41AA2BF01EB0451294330BD6FEA040492
:100410001F3C1CDA0C340EDC04F11404C4F120027D
:1004200020FA04F001FA02F340EA030021FA04F38F
:1004300045EA030130BDC4F10C04C4F1200220FAE6
:1004400002F001FA04F340EA0300294630BD21FA24
:1004500004F0294630BD94F0000F83F4801306BFEA
:1004600081F480110134013D4EE77FEA645C18BFDE
:100470007FEA655C29D094EA050F08BF90EA020F75
:1004800005D054EA000C04BF1946104630BD91EA6D
:10049000030F1EBF0021002030BD5FEA545C05D170
:1004A0004000494128BF41F0004130BD14F58004AF
:1004B0003CBF01F5801130BD01F0004545F0FE4123
:1004C00041F470014FF0000030BD7FEA645C1ABF58
:1004D000194610467FEA655C1CBF0B46024650EA8F
:1004E000013406BF52EA033591EA030F41F40021BB
:1004F00030BD00BF90F0000F04BF0021704730B541
:100500004FF4806404F132044FF000054FF0000115
:1005100050E700BF90F0000F04BF0021704730B5D6
:100520004FF4806404F1320410F0004548BF4042AB
:100530004FF000013EE700BF42004FEAE2014FEA00
:1005400031014FEA02701FBF12F07F4393F07F4FDB
:1005500081F06051704732F07F4208BF704793F0DE
:100560007F4F04BF41F40021704730B54FF46074F1
:1005700001F0004521F000411CE700BF50EA0102F4
:1005800008BF704730B54FF000050AE050EA01029D
:1005900008BF704730B511F0004502D5404261EB0D
:1005A00041014FF4806404F132045FEA915C3FF44E
:1005B000D8AE4FF003025FEADC0C18BF03325FEAEB
:1005C000DC0C18BF033202EBDC02C2F1200300FA9C
:1005D00003FC20FA02F001FA03FE40EA0E0021FAC1
:1005E00002F11444BDE600BF70B54FF0FF0C4CF4AF
:1005F000E06C1CEA11541DBF1CEA135594EA0C0F61
:1006000095EA0C0F00F0DEF82C4481EA030621EA9B
:100610004C5123EA4C5350EA013518BF52EA0335D6
:1006200041F4801143F4801338D0A0FB02CE4FF088
:100630000005E1FB02E506F00042E0FB03E54FF0B8
:100640000006E1FB03569CF0000F18BF4EF0010EB0
:10065000A4F1FF04B6F5007F64F5407404D25FEAAC
:100660004E0E6D4146EB060642EAC62141EA55515F
:100670004FEAC52040EA5E504FEACE2EB4F1FD0CA1
:1006800088BFBCF5E06F1ED8BEF1004F08BF5FEA1F
:10069000500E50F1000041EB045170BD06F00046D1
:1006A00046EA010140EA020081EA0301B4EB5C047E
:1006B000C2BFD4EB0C0541EA045170BD41F4801176
:1006C0004FF0000E013C00F3AB8014F1360FDEBF9B
:1006D000002001F0004170BDC4F10004203C35DA77
:1006E0000C341BDC04F11404C4F1200500FA05F3FA
:1006F00020FA04F001FA05F240EA020001F000429B
:1007000021F0004110EBD37021FA04F642EB060110
:100710005EEA430E08BF20EAD37070BDC4F10C043A
:10072000C4F1200500FA04F320FA05F001FA04F2FE
:1007300040EA020001F0004110EBD37041F10001EA
:100740005EEA430E08BF20EAD37070BDC4F12005F5
:1007500000FA05F24EEA020E20FA04F301FA05F25D
:1007600043EA020321FA04F001F0004121FA04F205
:1007700020EA020000EBD3705EEA430E08BF20EAD5
:10078000D37070BD94F0000F0FD101F0004640000F
:1007900041EB010111F4801F08BF013CF7D041EA91
:1007A000060195F0000F18BF704703F00046520095
:1007B00043EB030313F4801F08BF013DF7D043EA66
:1007C0000603704794EA0C0F0CEA135518BF95EA1C
:1007D0000C0F0CD050EA410618BF52EA4306D1D1A3
:1007E00081EA030101F000414FF0000070BD50EAC2
:1007F000410606BF1046194652EA430619D094EA4C
:100800000C0F02D150EA013613D195EA0C0F05D135
:1008100052EA03361CBF104619460AD181EA030189
:1008200001F0004141F0FE4141F470014FF0000041
:1008300070BD41F0FE4141F4780170BD70B54FF0DC
:10084000FF0C4CF4E06C1CEA11541DBF1CEA13555C
:1008500094EA0C0F95EA0C0F00F0A7F8A4EB05043E
:1008600081EA030E52EA03354FEA013100F0888035
:100870004FEA03334FF0805545EA131343EA1263FE
:100880004FEA022245EA111545EA10654FEA0026B3
:100890000EF000419D4208BF964244F1FD0404F56C
:1008A000407402D25B084FEA3202B61A65EB0305C8
:1008B0005B084FEA32024FF480104FF4002CB6EB85
:1008C000020E75EB030E22BFB61A754640EA0C0005
:1008D0005B084FEA3202B6EB020E75EB030E22BF45
:1008E000B61A754640EA5C005B084FEA3202B6EB86
:1008F000020E75EB030E22BFB61A754640EA9C0045
:100900005B084FEA3202B6EB020E75EB030E22BF14
:10091000B61A754640EADC0055EA060E18D04FEAD2
:10092000051545EA16754FEA06164FEAC30343EA72
:1009300052734FEAC2025FEA1C1CC0D111F4801F3F
:100940000BD141EA00014FF000004FF0004CB6E738
:1009500011F4801F04BF01430020B4F1FD0C88BFD7
:10096000BCF5E06F3FF6AFAEB5EB030C04BFB6EBE2
:10097000020C5FEA500C50F1000041EB045170BDD5
:100980000EF0004E4EEA113114EB5C04C2BFD4EB02
:100990000C0541EA045170BD41F480114FF0000E86
:1009A000013C90E645EA060E8DE60CEA135594EA02
:1009B0000C0F08BF95EA0C0F3FF43BAF94EA0C0F05
:1009C0000AD150EA01347FF434AF95EA0C0F7FF47A
:1009D00025AF104619462CE795EA0C0F06D152EACE
:1009E00003353FF4FDAE1046194622E750EA4106B2
:1009F00018BF52EA43067FF4C5AE50EA41047FF4C3
:100A00000DAF52EA43057FF4EBAE12E74FF0FF3C27
:100A100006E000BF4FF0010C02E000BF4FF0010CF8
:100A20004DF804CD4FEA410C7FEA6C5C4FEA430C71
:100A300018BF7FEA6C5C1BD001B050EA410C0CBFC0
:100A400052EA430C91EA030F02BF90EA020F002022
:100A5000704710F1000F91EA030F58BF994208BF89
:100A600090422CBFD8176FEAE37040F00100704746
:100A70004FEA410C7FEA6C5C02D150EA013C07D19D
:100A80004FEA430C7FEA6C5CD6D152EA033CD3D0E8
:100A90005DF8040B704700BF8446104662468C46E2
:100AA0001946634600E000BF01B5FFF7B7FF002815
:100AB00048BF10F1000F01BD4DF808EDFFF7F4FF3E
:100AC0000CBF012000205DF808FB00BF4DF808EDC9
:100AD000FFF7EAFF34BF012000205DF808FB00BFEC
:100AE0004DF808EDFFF7E0FF94BF012000205DF80E
:100AF00008FB00BF4DF808EDFFF7CEFF94BF0120C3
:100B000000205DF808FB00BF4DF808EDFFF7C4FFBB
:100B100034BF012000205DF808FB00BF4FEA410C04
:100B20007FEA6C5C02D150EA013C0AD14FEA430CE7
:100B30007FEA6C5C02D152EA033C02D14FF0000024
:100B400070474FF0010070477BB972B90029BEBFF2
:100B500000204FF0004106E008BF00281CBF6FF0E6
:100B600000414FF0FF3000F0BBB9ADF1080C6DE96A
:100B700004CE002909DB002B1ADB00F04DF8DDF86C
:100B800004E0DDE9022304B07047404261EB41011B
:100B9000002B1BDB00F040F8DDF804E0DDE9022368
:100BA00004B0404261EB4101524263EB43037047A2
:100BB000524263EB430300F02FF8DDF804E0DDE977
:100BC000022304B0404261EB41017047524263EBA3
:100BD000430300F021F8DDF804E0DDE9022304B06E
:100BE000524263EB4303704753B94AB9002908BF27
:100BF00000281CBF4FF0FF314FF0FF3000F070B9FC
:100C0000ADF1080C6DE904CE00F006F8DDF804E063
:100C1000DDE9022304B070472DE9F047089E0D4638
:100C200004460F46002B4AD18A42944665D9B2FA4F
:100C300082F343B102FA03FCC3F120029F4020FA81
:100C400002F217439C404FEA1C4E1FFA8CF5B7FB8B
:100C5000FEF1220C0EFB117742EA074201FB05F080
:100C600090420AD91CEB020201F1FF3780F01C818F
:100C7000904240F2198102396244121AA4B2B2FBC6
:100C8000FEF00EFB102244EA024400FB05F5A542EB
:100C90000AD91CEB040400F1FF3280F00781A54261
:100CA00040F204816444023840EA0140641B0021A0
:100CB0001EB1DC400023C6E90043BDE8F0878B424B
:100CC00008D9002E00F0ED800021C6E90005084695
:100CD000BDE8F087B3FA83F1002949D1AB4202D3D2
:100CE000824200F2F880841A65EB03020120174665
:100CF000002EE2D0C6E90047DFE702B9FFDEB2FA14
:100D000082F3002B40F090808A1A4FEA1C471FFAAA
:100D10008CFE0121B2FBF7F507FB1520220C42EAFD
:100D200000420EFB05F0904208D91CEB020205F1CF
:100D3000FF3802D2904200F2CB804546121AA4B28C
:100D4000B2FBF7F007FB102244EA02440EFB00FE60
:100D5000A64508D91CEB040400F1FF3202D2A645D7
:100D600000F2BB801046A4EB0E0440EA05409FE76A
:100D7000C1F120078B4022FA07FC4CEA030C05FA6C
:100D800001F420FA07F3FD404FEA1C492343B5FB69
:100D9000F9F81FFA8CFE09FB18551C0C44EA0544AF
:100DA00008FB0EF5A54202FA01F200FA01F00BD998
:100DB0001CEB040408F1FF3A80F08880A54240F261
:100DC0008580A8F102086444641B9DB2B4FBF9F36A
:100DD00009FB134445EA044403FB0EFEA64508D96B
:100DE0001CEB040403F1FF356CD2A6456AD9023B23
:100DF000644443EA0843A3FB0295A4EB0E04AC420F
:100E0000C846AE4656D353D056B1B0EB080264EB99
:100E10000E0404FA07F7CA40CC401743C6E9007431
:100E200018460021BDE8F087C3F1200102FA03FC57
:100E300020FA01F225FA01F19D402A434FEA1C47AE
:100E40001FFA8CFEB1FBF7F007FB1015110C41EAFD
:100E5000054100FB0EF58D4204FA03F408D91CEBA2
:100E6000010100F1FF382FD28D422DD902386144A3
:100E7000491B92B2B1FBF7F507FB151142EA01429B
:100E800005FB0EF1914208D91CEB020205F1FF3877
:100E900016D2914214D9023D6244521A45EA0041E9
:100EA00038E73146304608E73946E6E61046FBE6C5
:100EB0004845A9D2B9EB020865EB0C0E013BA3E74C
:100EC0004546EAE72B4694E74046D1E7D0467BE724
:100ED000023D624432E708460AE76444023842E7CA
:100EE000704700BF10F8012B11F8013B012A28BF01
:100EF0009A42F7D0D01A7047034613F8012B002A04
:100F0000FBD1181A0138704708B50268034B9A42A2
:100F100000D008BD02F0D8F8FBE700BF0000014098
:100F200072B6FEE700B595B03022002108A805F0A2
:100F300054F90023039304930593069307930193B5
:100F4000204A116C41F080511164126C02F0805201
:100F50000192019A02931C4B1A6842F480421A6073
:100F60001B6803F480430293029B012308934FF410
:100F70008033099302230E934FF480020F920422D0
:100F80001092A822119212930723139308A801F03C
:100F900069F998B90F23039302230493002305935F
:100FA0004FF4A05306934FF480530793052103A8F1
:100FB00001F0C2FB20B915B05DF804FBFFF7B0FFEC
:100FC000FFF7AEFF003802400070004008B502F0A5
:100FD00061F8FFF7A7FF00F011F800F0DFFC00F068
:100FE0005FFD00F0B5FB00F0EBFB00F021FC04F02E
:100FF0009FF900F09DFB04F0ADF9FEE72DE9F04FFD
:101000008DB000240794089409940A940B940194D9
:10101000794B1A6B42F010021A631A6B02F010023D
:101020000192019A02941A6B42F004021A631A6B3D
:1010300002F004020292029A03941A6B42F08002B8
:101040001A631A6B02F080020392039A04941A6BDB
:1010500042F001021A631A6B02F001020492049A30
:1010600005941A6B42F002021A631A6B02F0020234
:101070000592059A06941A6B42F008021A631B6BDC
:1010800003F008030693069B22464FF688715B48DF
:1010900001F03CFDDFF86C8101221146404601F071
:1010A00035FDDFF864B122464FF21001584601F0D9
:1010B0002DFD4FF6887307930127089709940A942A
:1010C00007A94E4801F02CFC0797089709940A9449
:1010D00007A9404601F024FC082307930225089540
:1010E00009940A944FF00509CDF82C9007A94046C1
:1010F00001F016FC07974FF4881308930994404EAB
:1011000007A9304601F00CFC1023079308950994B9
:101110000A9406230B9307A9304601F001FCE02353
:101120000793089509940A94CDF82C9007A93046A6
:1011300001F0F6FB0423079308940994DFF8CCA090
:1011400007A9504601F0ECFB4FF480630793089524
:1011500009940A94CDF82C9007A9504601F0E0FBC1
:101160004FF210030793089709940A9407A9584669
:1011700001F0D6FB4FF4A4530793089509940A9401
:1011800006230B9307A9404601F0CAFB4FF40073F6
:1011900007930894099407A9304601F0C1FB4FF466
:1011A000E0530793089509940A940A230B9307A91F
:1011B000304601F0B5FB202307930894099407A952
:1011C000584601F0ADFB4FF41073079312230893B8
:1011D00009940A9404230B9307A9504601F0A0FB3D
:1011E00007954FF490130893099407A9034801F059
:1011F00097FB0DB0BDE8F08F0038024000100240B0
:101200000000024000080240000C024000040240BE
:101210002DE9F04107291DD8DFE801F0041E375001
:1012200069829BB4644D00EB400305EB8308634E79
:10123000002235F82310304601F068FC0022B8F88F
:101240000410304601F062FC0022B8F80810304665
:1012500001F05CFCBDE8F081574D00EB400305EB6D
:101260008308564E012235F82310304601F04EFC1B
:101270000022B8F80410304601F048FC0022B8F80B
:101280000810304601F042FCE4E74B4D00EB400310
:1012900005EB8308494E002235F82310304601F053
:1012A00035FC0122B8F80410304601F02FFC002272
:1012B000B8F80810304601F029FCCBE73E4D00EBB2
:1012C000400305EB83083D4E012235F823103046DC
:1012D00001F01CFC0122B8F80410304601F016FCA5
:1012E0000022B8F80810304601F010FCB2E7324D89
:1012F00000EB400305EB8308304E002235F8231045
:10130000304601F003FC0022B8F80410304601F02A
:10131000FDFB0122B8F80810304601F0F7FB99E711
:10132000254D00EB400305EB8308244E012235F8E0
:101330002310304601F0EAFB0022B8F804103046D2
:1013400001F0E4FB0122B8F80810304601F0DEFBA2
:1013500080E7194D00EB400305EB8308174E002290
:1013600035F82310304601F0D1FB0122B8F8041003
:10137000304601F0CBFB0122B8F80810304601F0EE
:10138000C5FB67E70C4D00EB400305EB83080B4EF4
:10139000012235F82310304601F0B8FB0122B8F8DD
:1013A0000410304601F0B2FB0122B8F808103046B4
:1013B00001F0ACFB4EE700BFB41D01080010024075
:1013C00010B50A4C204600F061FD0A21204600F0CD
:1013D0001FFE28B10024054800F0FAFD204610BD8C
:1013E000204600F071FE84B2F5E700BFE003002064
:1013F00010B50A4C204600F049FD0A21204600F0B5
:1014000007FE28B10024054800F0E2FD204610BD8B
:10141000204600F059FE84B2F5E700BF9803002093
:1014200010B50A4C204600F031FD0A21204600F09C
:10143000EFFD28B10024054800F0CAFD204610BD8C
:10144000204600F041FE84B2F5E700BF50030020C3
:101450002DE9D0430C46FFF74DF846A3D3E900230E
:10146000FFF7C2F8804689463D4BC3E90089204614
:10147000FFF750F806460F4602460B4640464946DF
:10148000FFF7DCF902460B463649C1E9002326A1E5
:10149000D1E90001FFF7D2F932463B46FEF7ECFEF8
:1014A00002460B463049C1E9002321A1D1E90001E0
:1014B000FFF7C4F941EC100B2C4BC3E9000140F6D7
:1014C00098039C4217D09FED1C1B05F007FD51ECC3
:1014D000100B1BA3D3E90023FFF786F80022244B4F
:1014E000FFF7ACF918A3D3E90023FFF77DF841EC2F
:1014F000100BBDE8D0839FED161B05F0EFFC51ECFF
:10150000100B15A3D3E90023FFF76EF80022184B48
:10151000FFF794F90CA3D3E90023FFF765F841EC3A
:10152000100BE6E7AFF300809A99999999990740D3
:101530000000000080842E41B3C727F8F7E4FB3F8A
:10154000FFC0E5DAD368C13F1F85EB51B89E234049
:101550000258A456555DF03F5876870FEE7C044044
:10156000480300201803002040030020100300203F
:1015700000408F407E46CE4A139B473F70B50446DD
:1015800000250DE0FFF734FF1B4B1B69063503EB0D
:10159000C50541F25C21FFF75BFF85ED000B354689
:1015A000164B53F82430AB4225DD6E1C31462046E5
:1015B000FFF72EFE012CE5D0022C0ED0002CEED130
:1015C000FFF7FEFE0C4B1B6903EBC50541F25C21E6
:1015D000FFF73EFF85ED000BE1E7FFF721FF064B2C
:1015E0001B690C3503EBC50540F69801FFF730FF8A
:1015F00085ED000BD3E770BD24030020A81D010872
:1016000010B5002403E02046FFF7B8FF0134022C98
:10161000F9DD10BD00B5ADF5297D364B0193364B94
:101620000093364B364A3749012006F0C1FDA3A886
:1016300006F03EFD344BA393344BA493344BA59357
:10164000344BA693A3A806F041FD002839D002A888
:1016500006F05AFD0DF51E7E0DF1080CBCE80F00DA
:10166000AEE80F00DCF80030CEF800309EAB002270
:10167000114691A806F05AFC91AB274A27498FA83A
:1016800006F09EFC07F01AFA0246254B8FA98EA899
:1016900006F0D2FC68AD98220021284604F09DFD9A
:1016A000204C256113256561A56109AE4FF4BE721A
:1016B0000021304604F091FD266000236360A560A0
:1016C0000FE040F24711184804F032FDBFE740F246
:1016D0006B11164804F02CFDFFF792FF642003F015
:1016E000B3FE00220F498EA806F0FCFB0028EED1C5
:1016F000F2E700BFBD5E00087F5E0008715E000873
:10170000595E0008F0040020F55C0008155D000833
:10171000355D0008755D0008BC280108641D0108DE
:10172000741D0108240300203C1D0108801D0108D0
:1017300008B5044A0021044803F028FE034B186052
:1017400008BD00BFD81D01081516000820030020A1
:1017500000B585B0002300930193029303931548CD
:10176000154A02604FF48032426083600361037661
:1017700080F82030C362114A8262C3600122C261D4
:1017800080F83030426100F055FB68B908230093BF
:1017900001230193002302936946064800F098FC58
:1017A00028B905B05DF804FBFFF7BAFBEEE7FFF7D9
:1017B000B7FBF6E750030020002001400100000FB6
:1017C00000B585B00023009301930293039315485D
:1017D000154A02604FF480324260836003610376F1
:1017E00080F82030C362114A8262C3600122C26164
:1017F00080F83030426100F01DFB68B90923009386
:1018000001230193002302936946064800F060FC1F
:1018100028B905B05DF804FBFFF782FBEEE7FFF7A0
:101820007FFBF6E798030020002101400100000F34
:1018300000B585B0002300930193029303931548EC
:10184000154A02604FF48032426083600361037680
:1018500080F82030C362114A8262C3600122C261F3
:1018600080F83030426100F0E5FA68B90B2300934C
:1018700001230193002302936946064800F028FCE7
:1018800028B905B05DF804FBFFF74AFBEEE7FFF768
:1018900047FBF6E7E0030020002201400100000FB3
:1018A00000B58DB000230793089309930A930B9317
:1018B0000368344A934208D0334A934224D0334ACF
:1018C000934240D00DB05DF804FB00210191304BF4
:1018D0005A6C42F480725A645A6C02F4807201921B
:1018E000019A02911A6B42F002021A631B6B03F019
:1018F00002030293029B012307930323089307A982
:10190000244801F00DF8DDE700210391204B5A6CCB
:1019100042F400725A645A6C02F400720392039A01
:1019200004911A6B42F002021A631B6B03F002036C
:101930000493049B022307930323089307A91548E4
:1019400000F0EEFFBEE700210591114B5A6C42F406
:1019500080625A645A6C02F480620592059A06917C
:101960001A6B42F004021A631B6B03F00403069324
:10197000069B022307930323089307A9064800F058
:10198000CFFF9FE7002001400021014000220140DD
:1019900000380240000402400008024010B582B046
:1019A000002401940D4B1A6B42F400121A631B6B56
:1019B00003F400130193019B22460521102001F03E
:1019C00023FB102001F058FB22460521112001F0D5
:1019D0001BFB112001F050FB02B010BD003802408B
:1019E0000120704708B504F047FC162303604FF050
:1019F000FF3008BD08B54FF0FF31FFF7F3FFFEE7FA
:101A000070B50C461646002506E0AFF3008021466F
:101A100001F8010B01350C46B542F6DB304670BDCE
:101A200070B50C461646002504E014F8010BAFF320
:101A300000800135B542F8DB304670BD08B503467D
:101A40000D4A12685AB10C4A106803440B4A1178C7
:101A50000B4A521A934206D8074A136008BD064A39
:101A600008491160EFE700BE04F006FC0C23036098
:101A70004FF0FF30F2E700BF2C040020000400000C
:101A80000000022050DF00204FF0FF3070474FF47D
:101A900000534B60002070470120704700207047C2
:101AA00008B50A480A4B03604FF4E1334360002352
:101AB0008360C36003610C2242618361C36101F0F2
:101AC000A5FD00B908BDFFF72BFAFBE7F0040020E5
:101AD0000044004030B589B000230393049305937C
:101AE000069307930268364B9A4201D009B030BD85
:101AF00004460025019503F5FA331A6C42F40032CE
:101B00001A641A6C02F400320192019A02951A6B5F
:101B100042F001021A631B6B03F001030293029B64
:101B20000C230393022304930323069307230793B1
:101B300003A9244800F0F4FE2348244B03604FF02F
:101B4000006343608560C5604FF480630361456155
:101B500085614FF48073C3614FF440330362456283
:101B600001F05AF828BB184BA3639C631848194B23
:101B700003604FF000634360402383600023C36031
:101B80004FF48062026143618361C3614FF440326C
:101B90000262436201F040F870B90D4B63639C63CD
:101BA00000220521262001F02FFA262001F064FAF8
:101BB0009CE7FFF7B5F9D6E7FFF7B2F9EDE700BF0D
:101BC00000440040000002403004002088600240D1
:101BD00090040020A0600240FEE7FEE7FEE7FEE77B
:101BE000FEE7704708B5024801F00EF908BD00BFD6
:101BF0003004002008B5024801F006F908BD00BF16
:101C00009004002008B5024801F0BAFA08BD00BFF0
:101C10003405002008B5024801F09CFE08BD00BF55
:101C2000F004002000B583B0002200920D4B596CE7
:101C300041F480415964596C01F48041009100994C
:101C40000192196C41F0805119641B6C03F08053B0
:101C50000193019B0F216FF0010001F0D5F903B052
:101C60005DF804FB0038024030B589B00546002419
:101C700001941E4B5A6C42F001025A645B6C03F0F3
:101C800001030193019B02A903A800F02BFE00F0C1
:101C900019FE4300164AA2FB03239B0C013B154887
:101CA000154A026040F2E732C2604360046184601A
:101CB000846101F087FB044610B1204609B030BDB5
:101CC0000C4801F015FA04460028F6D1192001F05D
:101CD000D3F90F2D01D90124EFE70022294619205D
:101CE00001F092F9054B1D60E7E700BF00380240A4
:101CF00083DE1B4334050020000001400800002063
:101D00004A4B5A6822F440325A605A6841680A4382
:101D10005A600268536823F4807353600268536802
:101D2000016943EA012353600268536823F040735A
:101D300053600268536881680B435360026893687C
:101D400023F40063936002689368C1680B43936057
:101D5000826A374B9A4257D00268936823F07063C7
:101D6000936002689368816A0B439360026893688A
:101D700023F04053936002689368C16A0B439360F9
:101D80000268936823F00203936002689368017EFF
:101D900043EA4103936090F82030002B3FD0026863
:101DA000536843F4006353600268536823F460434C
:101DB000536001684B68426A013A43EA42334B6020
:101DC0000268D36A23F47003D3620168CB6AC269E4
:101DD000013A43EA0253CB620268936823F400732A
:101DE00093600268936890F8301043EA412393604F
:101DF0000268936823F48063936002689368416982
:101E000043EA8123936070470268936823F070630C
:101E100093600268936823F040539360B0E70268D0
:101E2000536823F400635360CAE700BF00230140F6
:101E30000100000F38B310B50446036C43B1236CA6
:101E400013F0100F0BD00120002384F83C3010BD9C
:101E5000FFF726FD0023636484F83C30EFE7236C32
:101E600023F4885323F0020343F002032364204643
:101E7000FFF746FF00206064236C23F0030343F068
:101E800001032364E0E701207047000082B00023D3
:101E9000019390F83C30012B00F08980012380F8F9
:101EA0003C3003689A6812F0010F13D19A6842F02F
:101EB00001029A60414B1B68414AA2FB03239B0C21
:101EC00003EB4303019302E0019B013B0193019B60
:101ED000002BF9D10268936813F0010F5CD0036CFA
:101EE00023F4E06323F0010343F480730364536835
:101EF00013F4806F05D0036C23F4405343F48053F4
:101F00000364036C13F4805F1BD0436C23F006035F
:101F10004364002380F83C306FF022031360294BA8
:101F20005B6813F01F0F27D10368274A934211D033
:101F300002F58072934207D0244A934214D00020C5
:101F400033E000234364E4E702F50072526812F0C4
:101F50001F0FF1D19A6812F0405F2AD19A6842F0BF
:101F600080429A60002020E002F58072526812F0F0
:101F7000100FEFD0002018E00368134A934201D0FD
:101F8000002012E09A6812F0405F14D19A6842F083
:101F900080429A60002008E0036C43F01003036461
:101FA000436C43F001034364002002B070470220F9
:101FB000FBE70020F9E70020F7E700BF0C00002056
:101FC00083DE1B430023014000200140002201402A
:101FD00090F83C30012B19D0012380F83C30026886
:101FE000936823F00103936003689B6813F0010F6B
:101FF00007D1036C23F4885323F0010343F001035A
:102000000364002380F83C30184670470220704774
:1020100070B504460D4603689A6812F4806F03D0C9
:102020009B6813F4807F19D101F05AF806462368A3
:102030001A6812F0020F20D1B5F1FF3FF7D0B5B901
:1020400023681B6813F0020FF1D1236C43F00403E3
:102050002364002384F83C30032032E0036C43F017
:1020600020030364002380F83C30012029E001F0C4
:1020700037F8801BA842DAD9E2E76FF012021A6043
:10208000236C43F40073236423689A6812F0405F62
:1020900016D1207EB0B9DA6A12F4700F03D09B68B3
:1020A00013F4806F0DD1236C23F480732364236CAD
:1020B00013F4805F05D1236C43F00103236400E037
:1020C000002070BD0020FCE70368D86C704700005A
:1020D00030B482B00022019290F83C20012A00F036
:1020E000B6800346012280F83C200A68092A40D9BC
:1020F0000468E06892B202EB42021E3A4FF0070C0D
:102100000CFA02F220EA0202E2601C68E0680A8827
:1021100002EB42021E3A8D6805FA02F20243E260C7
:102120004A68062A3CD81C68606B02EB8202053ABA
:102130004FF01F0C0CFA02F220EA020262631C68E4
:10214000606B4A6802EB8202053AB1F800C00CFAF3
:1021500002F20243626318683E4A904250D0186807
:102160003C4A904255D0002083F83C0002B030BC7D
:1021700070470468206992B202EB42024FF0070CEC
:102180000CFA02F220EA020222611C6820690A8825
:1021900002EB42028D6805FA02F202432261BFE7B8
:1021A0000C2A16D81D68286B02EB8202233A1F24E2
:1021B00004FA02F220EA02022A631D68286B4A68C8
:1021C00002EB8202233A0C8804FA02F202432A63E9
:1021D000C1E71D68E86A02EB8202413A1F2404FA53
:1021E00002F220EA0202EA621D68E86A4A6802EB2B
:1021F0008202413A0C8804FA02F20243EA62AAE738
:102200000A68122AABD11448426842F48002426044
:10221000A5E70A68103A012AA5D80F48426842F497
:10222000000242600A68102A9DD10C4A12680C49CB
:10223000A1FB0212920C02EB82025200019202E018
:10224000019A013A0192019A002AF9D18BE7022002
:102250008CE700BF00200140002301400C0000205B
:1022600083DE1B43002800F0E08170B582B0044695
:10227000036813F0010F3BD09F4B9B6803F00C03E6
:10228000042B2CD09C4B9B6803F00C03082B21D013
:102290006368B3F5803F4FD0B3F5A02F52D0964B73
:1022A0001A6822F480321A601A6822F480221A60B6
:1022B0006368002B50D000F013FF05468E4B1B685F
:1022C00013F4003F14D100F00BFF401B6428F5D934
:1022D0000320B1E1884B5B6813F4800FD8D0864BA4
:1022E0001B6813F4003F03D06368002B00F09F814C
:1022F000236813F0020F54D07F4B9B6813F00C0F30
:102300003ED07D4B9B6803F00C03082B33D0E36871
:10231000002B68D0794B01221A6000F0E1FE0546DF
:10232000754B1B6813F0020F54D100F0D9FE401B0F
:102330000228F5D903207FE16F4A136843F4803304
:102340001360B5E76C4B1A6842F480221A601A6871
:1023500042F480321A60ABE700F0C2FE0546664BDD
:102360001B6813F4003FC3D000F0BAFE401B642882
:10237000F5D9032060E1604B5B6813F4800FC6D190
:102380005D4B1B6813F0020F03D0E368012B40F094
:102390005081594A136823F0F803216943EAC103C5
:1023A0001360236813F0080F42D063696BB3534B7B
:1023B0000122C3F8802E00F093FE05464E4B5B6F62
:1023C00013F0020F34D100F08BFE401B0228F5D928
:1023D000032031E1484A136823F0F803216943EAF6
:1023E000C1031360DDE7454B00221A6000F078FE60
:1023F0000546414B1B6813F0020FD2D000F070FE6F
:10240000401B0228F5D9032016E13C4B0022C3F8FB
:10241000802E00F065FE0546374B5B6F13F0020F10
:1024200006D000F05DFE401B0228F5D9032003E131
:10243000236813F0040F77D02F4B1B6C13F0805FD1
:1024400033D1002301932C4B1A6C42F080521A6452
:102450001B6C03F080530193019B0125284B1B68E3
:1024600013F4807F23D0A368012B34D0052B38D000
:10247000214B1A6F22F001021A671A6F22F0040230
:102480001A67A368002B3DD000F02AFE06461A4BBF
:102490001B6F13F0020F46D100F022FE801B41F2A9
:1024A00088339842F3D90320C6E00025D6E7144AC2
:1024B000136843F48073136000F012FE0646104B5D
:1024C0001B6813F4807FCED100F00AFE801B022827
:1024D000F5D90320B0E0084A136F43F001031367F6
:1024E000CFE7054B1A6F42F004021A671A6F42F0E9
:1024F00001021A67C5E700BF0038024000004742EA
:102500000070004000F0ECFD0646524B1B6F13F0CC
:10251000020F08D000F0E4FD801B41F2883398429E
:10252000F3D9032088E0EDB9A369002B00F0838084
:10253000484A926802F00C02082A51D0022B17D0A8
:10254000454B00221A6600F0CBFD0446414B1B6848
:1025500013F0007F42D000F0C3FD001B0228F5D924
:10256000032069E03B4A136C23F080531364DBE7DC
:10257000394B00221A6600F0B3FD0546354B1B6847
:1025800013F0007F06D000F0ABFD401B0228F5D908
:10259000032051E0E369226A1343626A43EA82132B
:1025A000A26A5208013A43EA0243E26A43EA02633A
:1025B000284A5360284B01221A6600F091FD044618
:1025C000244B1B6813F0007F06D100F089FD001B2F
:1025D0000228F5D903202FE000202DE000202BE079
:1025E000012B2BD01B4B5B6803F48001E269914205
:1025F00026D103F03F02216A8A4223D1616A47F65D
:10260000C0721A40B2EB811F1ED103F44031A26A9E
:102610005208013AB1EB024F18D103F07063E26A3D
:10262000B3EB026F14D1002006E0012070470120B7
:1026300002E0012000E0002002B070BD0120FBE7B5
:102640000120F9E70120F7E70120F5E70120F3E792
:102650000120F1E7003802400000474208B5334B43
:102660009B6803F00C03042B5BD0082B5BD12F4B32
:102670005A6802F03F025B6813F4800F2CD02B4B9A
:102680005868C0F388104FEA401CBCEB000C6EEB9E
:102690000E0E4FEA8E1343EA9C634FEA8C11B1EBA6
:1026A0000C0163EB0E03DB0043EA5173C90011EB2D
:1026B000000C43F10003590200234FEA4C2041EA89
:1026C000DC51FEF791FA194B5B68C3F30143013308
:1026D0005B00B0FBF3F027E0144B5868C0F38810A0
:1026E0004FEA401CBCEB000C6EEB0E0E4FEA8E1353
:1026F00043EA9C634FEA8C11B1EB0C0163EB0E03D0
:10270000DB0043EA5173C90011EB000C43F10003F5
:10271000990200234FEA8C2041EA9C51FEF764FAAB
:10272000D1E7034800E0034808BD00BF003802407D
:1027300000127A000024F400002800F09B8070B59D
:102740000D4604464F4B1B6803F007038B4208D22B
:10275000CBB24C4A1370136803F007038B4240F06E
:102760008B80236813F0020F17D013F0040F04D0EE
:10277000454A936843F4E0539360236813F0080FCD
:1027800004D0414A936843F4604393603E4A93689F
:1027900023F0F003A1680B439360236813F0010F4B
:1027A00032D06368012B21D09A1E012A25D9364ADE
:1027B000126812F0020F61D033498A6822F00302D6
:1027C00013438B6000F08CFC06462F4B9B6803F094
:1027D0000C036268B3EB820F16D000F081FC801B03
:1027E00041F288339842F0D9032042E0264A126829
:1027F00012F4003FE0D101203BE0234A126812F0BE
:10280000007FD9D1012034E01E4B1B6803F0070381
:10281000AB4207D9EAB21B4B1A701B6803F00703DF
:10282000AB422DD1236813F0040F06D0164A9368EB
:1028300023F4E053E1680B439360236813F0080F1F
:1028400007D0114A936823F46043216943EAC10326
:102850009360FFF703FF0C4B9B68C3F303130B4A12
:10286000D35CD8400A4B18600A4B1868FFF7FCF994
:10287000002070BD012070470120FAE70120F8E731
:102880000120F6E7003C024000380240041E010827
:102890000C00002008000020014B1868704700BFA2
:1028A0000C00002008B5FFF7F7FF044B9B68C3F34B
:1028B0008223034AD35CD84008BD00BF00380240E1
:1028C000141E010808B5FFF7E7FF044B9B68C3F32C
:1028D0004233034AD35CD84008BD00BF00380240F1
:1028E000141E01080F2303600B4B9A6802F00302C9
:1028F00042609A6802F0F00282609A6802F4E05244
:10290000C2609B68DB0803F4E0530361034B1B6860
:1029100003F007030B60704700380240003C0240A0
:1029200000230F2B00F2E98070B582B065E0856866
:102930004FEA430E032404FA0EF425EA0405CC689A
:1029400004FA0EF42C438460446824EA02044A68C2
:10295000C2F300129A40224342605CE0DC08083473
:1029600050F8242003F00705AD004FF00F0E0EFACB
:1029700005FE22EA0E0E0A69AA4042EA0E0240F85B
:1029800024205CE0072200E0002202FA0EF22A4333
:1029900002345A4D45F82420594A94686FEA0C02D3
:1029A00024EA0C054E6816F4801F01D04CEA040599
:1029B000534CA560E46802EA04054E6816F4001F53
:1029C00001D04CEA04054E4CE560646802EA040557
:1029D0004E6816F4003F01D04CEA0405484C65608F
:1029E000246822404D6815F4803F01D04CEA04026F
:1029F000434C226001330F2B7DD801229A400C6892
:102A000004EA020C32EA0404F4D14C6804F0030432
:102A1000013C012C8BD94A6802F00302032A09D039
:102A2000C4685D000322AA4024EA02048A68AA401E
:102A30002243C2604A6802F00302022A8ED0046870
:102A40004FEA430E032202FA0EF224EA02044A6815
:102A500002F0030202FA0EF2224302604A6812F404
:102A6000403FC7D000220192264A546C44F480446F
:102A70005464526C02F480420192019A9C08A51C95
:102A80001E4A52F8255003F0030E4FEA8E0E0F2215
:102A900002FA0EF225EA02051B4A90423FF474AF97
:102AA00002F5806290421AD002F58062904218D0FE
:102AB00002F58062904216D002F58062904214D0F6
:102AC00002F58062904212D002F58062904210D0EE
:102AD00002F5806290423FF455AF082255E701228B
:102AE00053E7022251E703224FE704224DE7052274
:102AF0004BE7062249E702B070BD7047003801403D
:102B0000003C014000380240000002400AB18161EF
:102B1000704709048161704730B405682C6824F45B
:102B200080242C60046863608368402B05D00368B0
:102B300099600368DA6030BC704703689A60036884
:102B4000D960F8E710B40368D9B210390C4AA2FB77
:102B5000014212090B4CA25CC2655F2909D923F41A
:102B60007F7323F0030304338365806D5DF8044BAA
:102B7000704723F47F7323F003038365F5E700BFF9
:102B8000ABAAAAAAFC1D0108836A826992B9012B2B
:102B90000AD0022B02D00BB100207047C36A13F099
:102BA000807F28D100207047C36AB3F1C07F24D052
:102BB00000207047B2F5005F09D0022B25D9032B06
:102BC00025D1C36A13F0807F23D100207047032BE7
:102BD00003D8DFE803F01404140A00207047C36A26
:102BE00013F0807F0DD100207047C36AB3F1C07F1E
:102BF00009D0002070470120704701207047012054
:102C00007047012070470120704701207047002065
:102C1000704701207047000070B5044600F060FA6C
:102C2000002C5BD00546022384F83530002384F85D
:102C300034302268136823F00103136023681A6894
:102C400012F0010F0AD000F04BFA431B052BF5D907
:102C500020236365032084F8350070BD1A6820497D
:102C600011406268A0680243E068024320690243A1
:102C700060690243A0690243E0690243206A02439B
:102C80000A43616A04291ED01A602668756925F016
:102C90000705636A1D43042B07D1A36A1D43E36A3A
:102CA0001BB12046FFF770FF90B975612046FFF712
:102CB00049FFE26D3F23934083600020606501235C
:102CC00084F83530C9E7E16A206B01430A43DBE74A
:102CD00040236365012084F83500BEE70120BCE78E
:102CE0003F8010F038B50446856D90F83400012817
:102CF0002BD0012084F8340094F83500C0B20128AC
:102D000004D0002384F83430022038BD022084F837
:102D10003500002060652046FFF7FEFEE26D3F2390
:102D20009340AB602268136843F016031360236C72
:102D300023B12268136843F0080313602268136804
:102D400043F0010313600020DFE70220DDE770B5E8
:102D50000446866D00F0C4F994F83530DBB2022BDE
:102D600006D080236365002384F83430012070BDD1
:102D700005462268136823F016031360226853691E
:102D800023F080035361236CE3B12268136823F0BE
:102D9000080313602268136823F00103136023689B
:102DA0001B6813F0010F11D000F09AF9431B052B9B
:102DB000F5D920236365032084F83500002384F8C7
:102DC0003430D4E7A36C002BDFD1E3E7E26D3F237F
:102DD0009340B360012384F83530002084F8340038
:102DE000C5E790F83530DBB2022B03D08023436572
:102DF00001207047052380F835300268136823F0FE
:102E00000103136000207047F0B583B0044600232F
:102E10000193724B1D68724BA3FB0535AD0A876D9C
:102E20003E68C26D08239340334210D003681A688D
:102E300012F0040F0BD01A6822F004021A60C26D5F
:102E400008239340BB60436D43F001034365E26D8B
:102E500001239340334209D02268526912F0800F57
:102E600004D0BB60636D43F002036365E26D04232D
:102E70009340334209D02268126812F0020F04D046
:102E8000BB60636D43F004036365E26D1023934000
:102E9000334224D02268126812F0080F1FD0BB60A2
:102EA00023681A6812F4802F0DD01B6813F4002FCA
:102EB00004D1236C9BB12046984710E0A36C73B1FA
:102EC000204698470BE01A6812F4807F03D11A68F5
:102ED00022F008021A60236C0BB120469847E26D7D
:102EE00020239340334255D02268126812F0100F0D
:102EF00050D0BB6094F83530DBB2052B0ED0236880
:102F00001A6812F4802F33D01B6813F4002F2AD1D3
:102F1000636C002B3ED0204698473BE02268136844
:102F200023F0160313602268536923F08003536172
:102F3000236CA3B12268136823F008031360E26DC9
:102F40003F239340BB60012384F83530002384F88D
:102F50003430236D002B3FD0204698473CE0A36CD3
:102F6000002BE7D1EBE7E36BA3B12046984711E0D4
:102F70001A6812F4807F09D11A6822F010021A60D0
:102F8000012384F83530002384F83430E36B0BB12F
:102F900020469847636DFBB1636D13F0010F17D0A6
:102FA000052384F835302268136823F00103136089
:102FB000019B01330193AB4204D823681B6813F0D3
:102FC000010FF5D1012384F83530002384F8343023
:102FD000E36C0BB12046984703B0F0BD0C00002015
:102FE000B5814E1B074AD36823F4E0631B041B0C16
:102FF000000200F4E060034343F0BF6343F4003396
:10300000D360704700ED00E000B5194BDB68C3F3F7
:103010000223C3F1070CBCF1040F28BF4FF0040CCE
:1030200003F1040EBEF1060F18D9033B4FF0FF3E2B
:103030000EFA0CFC21EA0C0199400EFA03FE22EA7A
:103040000E020A4300280BDB1201D2B200F16040ED
:1030500000F5614080F800235DF804FB0023E5E7FC
:1030600000F00F001201D2B2024B1A54F4E700BF75
:1030700000ED00E014ED00E0002807DB00F01F0287
:10308000400901239340024A42F82030704700BFB4
:1030900000E100E008B50B4B1A6842F400721A60B8
:1030A0001A6842F480621A601A6842F480721A60E8
:1030B0000320FFF797FF0F20FEF7D6FDFEF7B2FDC6
:1030C000002008BD003C0240034A1168034B1B78F6
:1030D0000B441360704700BF7C05002004000020F3
:1030E000014B1868704700BF7C0500207047000046
:1030F00090F83D30DBB2012B37D1022380F83D3010
:103100000268D36843F00103D3600368194A93420D
:1031100020D0B3F1804F1DD0A2F57C42934219D04C
:1031200002F58062934215D002F58062934211D07D
:1031300002F5784293420DD002F57052934209D0C5
:10314000A2F59432934205D01A6842F001021A6047
:10315000002070479A6802F00702062A07D01A6812
:1031600042F001021A6000207047012070470020E1
:10317000704700BF000001407047704770477047BC
:1031800010B5044603681A6912F0020F11D0DA680C
:1031900012F0020F0DD06FF002021A6101230377C3
:1031A00003689B6913F0030F70D0FFF7E6FF00235D
:1031B000237723681A6912F0040F12D0DA6812F02C
:1031C000040F0ED06FF004021A61022323772368E4
:1031D0009B6913F4407F5FD02046FFF7CEFF0023AA
:1031E000237723681A6912F0080F12D0DA6812F0F8
:1031F000080F0ED06FF008021A61042323772368AA
:10320000DB6913F0030F4ED02046FFF7B6FF002313
:10321000237723681A6912F0100F12D0DA6812F0BF
:10322000100F0ED06FF010021A6108232377236865
:10323000DB6913F4407F3DD02046FFF79EFF00235B
:10324000237723681A6912F0010F03D0DA6812F0AD
:10325000010F36D123681A6912F0800F03D0DA68A3
:1032600012F0800F34D123681A6912F0400F03D096
:10327000DA6812F0400F32D123681A6912F0200F79
:1032800003D0DA6812F0200F30D110BDFFF774FFC1
:103290002046FFF773FF8AE72046FFF76DFF2046C1
:1032A000FFF76CFF9BE72046FFF766FF2046FFF71E
:1032B00065FFACE72046FFF75FFF2046FFF75EFFA4
:1032C000BDE76FF001021A612046FDF71DFEC1E760
:1032D0006FF080021A61204600F0A1F8C3E76FF09A
:1032E00040021A612046FFF74AFFC5E76FF020024F
:1032F0001A61204600F092F8C7E700000368304AE0
:10330000904212D0B0F1804F0FD0A2F57C42904293
:103310000BD002F58062904207D002F580629042A5
:1033200003D002F57842904203D123F070034A683B
:103330001343234A90422AD0B0F1804F27D0A2F500
:103340007C42904223D002F5806290421FD002F569
:10335000806290421BD002F57842904217D002F56D
:103360007052904213D002F5806290420FD002F565
:10337000806290420BD0A2F59832904207D002F5BD
:103380008062904203D002F58062904203D123F420
:103390004073CA68134323F080034A6913430360F0
:1033A0008B68C3620B688362054B984203D003F5B8
:1033B0008063984201D10B69036301234361704725
:1033C0000000014040B310B5044690F83D30F3B121
:1033D000022384F83D30214651F8040BFFF78EFF9D
:1033E000012384F8463084F83E3084F83F3084F876
:1033F000403084F8413084F8423084F8433084F817
:10340000443084F8453084F83D30002010BD80F809
:103410003C30FFF76BFEDBE70120704770477047D9
:10342000026802F10C0353E8003F23F0C0030C32A2
:1034300042E800310029F3D1202380F83D30704765
:10344000026802F10C0353E8003F23F490730C323E
:1034500042E800310029F3D1026802F1140353E875
:10346000003F23F00103143242E800310029F3D178
:10347000036B012B05D0202380F83E30002303632B
:103480007047026802F10C0353E8003F23F0100379
:103490000C3242E800310029F3D1ECE790F83D30DE
:1034A000DBB2212B01D0022070478368B3F5805F27
:1034B00017D0036A5A1C02621A7803685A60C38CD8
:1034C0009BB2013B9BB2C3844BB90268D36823F023
:1034D0008003D3600268D36843F04003D3600020C8
:1034E00070470369002BE4D1036A1B880268C3F3A9
:1034F00008035360036A02330362E0E710B5044631
:103500000268136923F44053C1680B431361836855
:1035100002691A4343691A43C3691A430168CB68B5
:1035200023F4164323F00C031343CB600268536962
:1035300023F4407381690B4353610368314A93421A
:1035400006D002F58062934202D0FFF7ABF901E0AA
:10355000FFF7B8F9E369B3F5004F29D0002103184C
:1035600049411B1841F10001C90041EA5371DB00D8
:10357000181863684FEA83024FEA937341F1000120
:10358000FDF732FB204AA2FB00314909642303FB0B
:1035900011031B013233A2FB03235B0903F0F0028A
:1035A00002EB011203F00F03216813448B6010BD7E
:1035B0000023021843EB0301121841F10001C90076
:1035C00041EA5271D200101841F10001626892186C
:1035D0005B41FDF709FB0C4AA2FB0031490964235A
:1035E00003FB1103DB003233A2FB03235B095A0008
:1035F00002F4F87202EB011203F00703216813448E
:103600008B60D4E7001001401F85EB5158B310B513
:10361000044690F83D300BB3242384F83D302268F3
:10362000D36823F40053D3602046FFF767FF226876
:10363000136923F4904313612268536923F02A032A
:1036400053612268D36843F40053D36000202064A0
:10365000202384F83D3084F83E3010BD80F83C30A3
:10366000FEF738FAD8E701207047000038B5134656
:1036700090F83D20D2B2202A37D10446002936D016
:10368000002B36D090F83C20012A34D0012280F85B
:103690003C2001628384C38400250564212280F8D4
:1036A0003D20426B1548D063626B15481064626B15
:1036B0001448D064626B156522680432606BFFF7B2
:1036C00011FB23686FF040021A6084F83C502268B6
:1036D00002F1140353E8003F43F08003143242E840
:1036E00000310029F3D1002000E0022038BD012084
:1036F000FCE70120FAE70220F8E700BF8F37000857
:10370000F73700080738000810B5044603685A69FF
:1037100090F83D30DBB2212B0AD023685A6902F0C1
:10372000400294F83E30DBB2222B19D0002010BDAD
:1037300002F08002002AF0D0226802F1140353E85C
:10374000003F23F08003143242E800310029F3D116
:10375000606B08B1FFF7FBFA2046FFF761FEDCE77C
:10376000002AE3D0226802F1140353E8003F23F05B
:103770004003143242E800310029F3D1A06B08B1B4
:10378000FFF7E5FA2046FFF75BFECFE7704708B585
:103790000346806B1B681B6813F4807F1AD10023DB
:1037A000C384026802F1140353E8003F23F080034E
:1037B000143242E800310029F3D1026802F10C030F
:1037C00053E8003F43F040030C3242E80031002947
:1037D000F3D108BDFFF7DAFFFBE708B50168CA6857
:1037E00022F04002CA60202280F83D20FFF7CEFF81
:1037F000002008BD704708B5806BFFF7FBFF08BDD0
:1038000070477047704710B5846B23685A6994F805
:103810003D30DBB2212B10D023685A6902F0400200
:1038200094F83E30DBB2222B11D0236C43F010030E
:1038300023642046FFF7E6FF10BD02F08002002A55
:10384000EAD00023E3842046FFF7EAFDE4E7002AFC
:10385000EBD00023E3852046FFF7F2FDE5E708B54E
:10386000806B0023C385C384FFF7CCFF08BD70477E
:1038700090F83E30DBB2222B67D18368B3F5805FCE
:103880004DD0826AB3F5805F04D0002B54D1036918
:10389000002B51D103685B681370836A0133836224
:1038A000C38D9BB2013B9BB2C385002B4FD100B5AA
:1038B00083B00268D36823F02003D3600268D36822
:1038C00023F48073D3600268536923F001035361CA
:1038D000202380F83E30036B012B33D10023036398
:1038E000026802F10C0353E8003F23F010030C328E
:1038F00042E800310029F3D103681A6812F0100F72
:1039000006D0002201921A6801925B680193019B24
:10391000818DFFF7ACFF002003B05DF804FB026966
:10392000002AAED1826A03685B68C3F30803138080
:10393000836A02338362B3E703685B6803F07F0343
:103940001370AAE7FFF75CFFE5E70220704700204D
:103950007047000030B583B0044602681368D06831
:10396000516913F00F0505D113F0200F02D010F0AC
:10397000200F19D12DB111F0010119D110F4907F50
:1039800016D1216B01297DD013F0800F03D010F0E8
:10399000800F40F0158113F0400F03D010F0400F5E
:1039A00040F0128103B030BD2046FFF761FFF9E718
:1039B00013F0010F06D010F4807F03D0226C42F088
:1039C0000102226413F0040F04D019B1226C42F0FA
:1039D0000202226413F0020F04D019B1226C42F0EB
:1039E0000402226413F0080F07D010F0200F00D15A
:1039F00019B1226C42F008022264226C002AD1D054
:103A000013F0200F02D010F0200F29D123685B693A
:103A100003F04003226C12F0080F00D163B320467C
:103A2000FFF70EFD23685B6913F0400F20D022687A
:103A300002F1140353E8003F23F04003143242E83C
:103A400000310029F3D1A36B73B1614A1A65A06BF1
:103A5000FFF7C7F90028A5D0A06B036D9847A1E731
:103A60002046FFF705FFD1E72046FFF7CBFE99E799
:103A70002046FFF7C7FE95E72046FFF7C3FE002369
:103A800023648FE713F0100F3FF47EAF10F0100F98
:103A90003FF47AAF002301931368019353680193B5
:103AA000019B536913F0400F50D0A26B13685B6801
:103AB0009BB2002B3FF476AFA18D99427FF672AF97
:103AC000E385D369B3F5807F37D0226802F10C0318
:103AD00053E8003F23F480730C3242E800310029A0
:103AE000F3D1226802F1140353E8003F23F00103ED
:103AF000143242E800310029F3D1226802F11403A4
:103B000053E8003F23F04003143242E8003100291B
:103B1000F3D1202384F83E3000232363226802F18E
:103B20000C0353E8003F23F010030C3242E800314D
:103B30000029F3D1A06BFFF70AF9A18DE38D9BB2A9
:103B4000C91A89B22046FFF792FE2BE7A18DE38DBB
:103B50009BB2C91A89B2E38D9BB2002B3FF422AF0E
:103B600000293FF41FAF226802F10C0353E8003F25
:103B700023F490730C3242E800300028F3D122681D
:103B800002F1140353E8003F23F00103143242E82A
:103B900000300028F3D1202384F83E300023236333
:103BA000226802F10C0353E8003F23F010030C32AB
:103BB00042E800300028F3D12046FFF758FEF1E636
:103BC0002046FFF76BFCEDE62046FFF706FEE9E630
:103BD0005F38000808B5806B036B012B02D0FFF73C
:103BE00010FE08BD818D4908FFF741FEF9E708B5D1
:103BF0000346806B1B681B6813F4807F2BD1002366
:103C0000C385026802F10C0353E8003F23F480737C
:103C10000C3242E800310029F3D1026802F11403AA
:103C200053E8003F23F00103143242E80031002939
:103C3000F3D1026802F1140353E8003F23F040037C
:103C4000143242E800310029F3D1202380F83E30BD
:103C5000036B012B05D0036B012B0FD0FFF7D0FDB9
:103C600008BD026802F10C0353E8003F23F0100383
:103C70000C3242E800310029F3D1ECE7818DFFF7E7
:103C8000F6FDEDE730B583B00446134681628285C8
:103C900000250564222280F83E20826B2048D063F4
:103CA000A26B20481064A26B1F48D064A26B1565FC
:103CB00020680A46011DA06BFFF714F801952368E0
:103CC0001A6801925B680193019B84F83C50236958
:103CD0005BB1226802F10C0353E8003F43F48073A8
:103CE0000C3242E800310029F3D1226802F11403BA
:103CF00053E8003F43F00103143242E80031002949
:103D0000F3D1226802F1140353E8003F43F040036B
:103D1000143242E800310029F3D1002003B030BD55
:103D2000EF3B0008D53B00080738000808B590F8BD
:103D30003E30DBB2202B0DD171B17AB190F83C301E
:103D4000012B0DD0012380F83C3000230363FFF7E3
:103D500099FF00E0022008BD0120FCE70120FAE7FE
:103D60000220F8E7034AD2F8883043F47003C2F81F
:103D70008830704700ED00E000F1080343604FF029
:103D8000FF328260C3600361002303607047002339
:103D90000361704743684B609A688A60516099601C
:103DA0000861036801330360704730B40D68B5F1F2
:103DB000FF3F11D000F108031C465B681A68AA4255
:103DC000FAD963684B6099608C6061600861036830
:103DD0000133036030BC70470469F2E7036941684E
:103DE00082688A60416851605A68824206D0002227
:103DF00002611A68013A1A601868704782685A604E
:103E0000F5E710B5044601F0CDFCA26BE36B9A42D6
:103E100004D0002401F0E8FC204610BD0124F9E79D
:103E200010B5044601F0BEFCA36B23B9012401F0D8
:103E3000DBFC204610BD0024F9E770B504461546AA
:103E4000866B026C5AB903681BB100200136A66369
:103E500070BD806800F0EEFF0023A360F6E76DB947
:103E6000406802F036FA226C636813446360A2680B
:103E7000934219D3236863602846E7E7C06802F0DD
:103E800028FA226C5142E3689B1AE360226893424D
:103E900002D2A3680B44E360022D01D00020D5E7D5
:103EA00026B1013E0020D1E72846CFE70020CDE72C
:103EB0000346026C6AB110B50846D9681144D9604E
:103EC0009C68A14201D31968D960D96802F001FA4F
:103ED00010BD704738B5054601F064FC95F84540C3
:103EE00064B201E0013C64B2002C0ADD6B6A43B1AC
:103EF00005F1240000F0D8FE0028F3D000F084FF84
:103F0000F0E7FF2385F8453001F06EFC01F04AFC34
:103F100095F8444064B201E0013C64B2002C0ADD33
:103F20002B6943B105F1100000F0BEFE0028F3D06C
:103F300000F06AFFF0E7FF2385F8443001F054FCFD
:103F400038BD38B5E0B10D46044601F02BFC2368BE
:103F5000E26B216C01FB0230A0600020A063636073
:103F6000013A02FB0133E360FF2384F8443084F814
:103F70004530FDB9236963B901F036FC012038BD35
:103F80004FF0500383F31188BFF36F8FBFF34F8F50
:103F9000FEE704F1100000F087FE0028ECD04FF09F
:103FA000E0234FF08052C3F8042DBFF34F8FBFF3CF
:103FB0006F8FE1E704F11000FFF7DEFE04F124004B
:103FC000FFF7DAFED8E738B51D46049C0B4649B921
:103FD0002460E063236401212046FFF7B2FF84F8E8
:103FE0004C5038BD2260F4E740B94FF0500383F3E2
:103FF0001188BFF36F8FBFF34F8FFEE710B584B00A
:104000001C46844653B192B189B94FF0500383F3F3
:104010001188BFF36F8FBFF34F8FFEE74FF0500350
:1040200083F31188BFF36F8FBFF34F8FFEE76AB141
:1040300050230393039B502B13D04FF0500383F373
:104040001188BFF36F8FBFF34F8FFEE70029EFD0CA
:104050004FF0500383F31188BFF36F8FBFF34F8F7F
:10406000FEE7039B012384F8463000949DF8183046
:104070006046FFF7A8FF204604B010BDF0B585B03C
:10408000019288B10F461D460446B1B1022D20D1E0
:10409000E36B012B1DD04FF0500383F31188BFF366
:1040A0006F8FBFF34F8FFEE74FF0500383F31188FC
:1040B000BFF36F8FBFF34F8FFEE7036C002BE5D08C
:1040C0004FF0500383F31188BFF36F8FBFF34F8F0F
:1040D000FEE700F09FFE064658B9019B002B48D032
:1040E0004FF0500383F31188BFF36F8FBFF34F8FEF
:1040F000FEE700263DE02A4639462046FFF79DFEB2
:10410000636A7BB948B14FF0E0234FF08052C3F8A7
:10411000042DBFF34F8FBFF36F8F01F065FB0120BC
:1041200005B0F0BD04F1240000F0BEFD0028F4D07D
:104130004FF0E0234FF08052C3F8042DBFF34F8FB0
:10414000BFF36F8FE9E701F04FFB0020E8E702A81B
:1041500000F00CFE012619E0002384F8443021E031
:10416000002384F8453023E02046FFF7B3FE00F03B
:104170007BFC01F017FBA26BE36B9A42BBD3022DD1
:10418000B9D0019B002BDED0002EE0D001F02CFB3B
:1041900000F0D0FB01F006FB94F8442052B2B2F1DB
:1041A000FF3FD9D094F8452052B2B2F1FF3FD7D0AB
:1041B00001F01AFB01A902A800F0E4FDD8B92046DD
:1041C000FFF71FFE0028CFD0019904F1100000F086
:1041D00037FD2046FFF77EFE00F046FC0028C8D1E0
:1041E0004FF0E0234FF08052C3F8042DBFF34F8F00
:1041F000BFF36F8FBDE72046FFF76CFE00F034FC85
:1042000000208DE72DE9F84390B10F4616461C4675
:104210000546B1B1022C20D1EB6B012B1DD04FF024
:10422000500383F31188BFF36F8FBFF34F8FFEE707
:104230004FF0500383F31188BFF36F8FBFF34F8F9D
:10424000FEE7036C002BE5D04FF0500383F3118899
:10425000BFF36F8FBFF34F8FFEE701F0C9FBEFF3A2
:1042600011884FF0500383F31188BFF36F8FBFF3B2
:104270004F8FAA6BEB6B9A4206D3022C04D000201E
:1042800088F31188BDE8F88395F845904FFA89F9CD
:10429000AB6B224639462846FFF7CFFDB9F1FF3F09
:1042A00006D009F101035BB285F845300120E7E74C
:1042B0006B6A0BB90120E3E705F1240000F0F4FC80
:1042C00018B126B101203060DAE70120D8E70120DB
:1042D000D6E7F0B585B0019290B10F460446C1B162
:1042E00000F098FD064600BB019B002B5ED04FF00E
:1042F000500383F31188BFF36F8FBFF34F8FFEE737
:104300004FF0500383F31188BFF36F8FBFF34F8FCC
:10431000FEE7036C002BE3D04FF0500383F31188CA
:10432000BFF36F8FBFF34F8FFEE700263EE03946A5
:104330002046FFF7BDFD013DA563236923B901F0C8
:1043400053FA012005B0F0BD04F1100000F0ACFC00
:104350000028F4D04FF0E0234FF08052C3F8042D32
:10436000BFF34F8FBFF36F8FE9E701F03DFA0020F5
:10437000E8E702A800F0FAFC012621E0002384F817
:10438000443029E0002384F845302BE02046FFF735
:10439000A1FD00F069FB09E02046FFF79BFD00F05E
:1043A00063FB2046FFF73CFD00283FD101F0FAF9FE
:1043B000A56B002DBBD1019B002BD6D0002ED8D0F1
:1043C00001F012FA00F0B6FA01F0ECF994F844307A
:1043D0005BB2B3F1FF3FD1D094F845305BB2B3F19B
:1043E000FF3FCFD001F000FA01A902A800F0CAFCFB
:1043F0000028D1D12046FFF713FD0028C6D001992F
:1044000004F1240000F01CFC2046FFF763FD00F0DF
:104410002BFB0028CAD14FF0E0234FF08052C3F8A5
:10442000042DBFF34F8FBFF36F8FBFE7002089E7E5
:104430000023072B0CD8074A52F833200AB1013366
:10444000F7E7044A42F8331002EBC30250607047AA
:10445000704700BF8005002070B504460D46164623
:1044600001F0A0F994F844305BB2B3F1FF3F0DD0F6
:1044700094F845305BB2B3F1FF3F0BD001F0B4F9D3
:10448000A36B5BB12046FFF725FD70BD002384F8C8
:104490004430EDE7002384F84530EFE73246294603
:1044A00004F1240000F0E4FBECE70000084B1B687B
:1044B0001B6823B9074B4FF0FF321A607047044B5B
:1044C0001B68DB68DB685A68024B1A60704700BFE4
:1044D000C40500206C0A00202DE9F04780460D46F7
:1044E00017469946089EDDF824A00A9C9200A52153
:1044F000206B01F072FE236B07F18042013A03EB5F
:10450000820727F00707A5B34FF0000CBCF10F0F8F
:1045100009D815F80C3004EB0C0282F8343013B1D2
:104520000CF1010CF2E7002384F84330372E00D958
:104530003726E662E66400252565201DFFF727FC87
:1045400004F11800FFF723FC2461C6F13806A661C8
:104550006462656584F858504A464146384601F021
:10456000F7F82060BAF1000F01D0CAF80040BDE8AA
:10457000F087002384F83430D8E7000038B50024F1
:1045800007E004EB840293000E481844FFF7F4FBA5
:104590000134372CF5D90C4D2846FFF7EDFB0B4CB9
:1045A0002046FFF7E9FB0A48FFF7E6FB0948FFF75B
:1045B000E3FB0948FFF7E0FB084B1D60084B1C605C
:1045C00038BD00BFCC050020400A0020540A00205E
:1045D000780A0020A40A0020900A0020C4050020C8
:1045E000C805002010B5044601F0DCF8224A136823
:1045F00001331360214B1B685BB1214B1B686BB906
:104600001E4B1B68DA6AE36A9A4207D81B4B1C6090
:1046100004E01A4B1C601368012B29D0194A136857
:10462000013313606364E06A174B1B68984201D939
:10463000154B186000EB8000211D144B03EB80002C
:10464000FFF7A8FB01F0D0F80D4B1B687BB10B4BBB
:104650001B68DA6AE36A9A4209D24FF0E0234FF00E
:104660008052C3F8042DBFF34F8FBFF36F8F10BD7F
:10467000FFF784FFD2E700BF2C0A0020C00500200E
:104680008C0A0020380A00203C0A0020CC050020BB
:1046900010B5044690F8593063B1012B11D0022BAC
:1046A0000ED04FF0500383F31188BFF36F8FBFF329
:1046B0004F8FFEE7006B00F0CFFF204600F0CCFFED
:1046C00010BD00F0C9FFFBE70F4B1B68D3B110B55D
:1046D00001F068F80D4BDB68DC68201DFFF77EFBFE
:1046E0000B4A1368013B1360074A1368013B1360D0
:1046F00001F07AF82046FFF7CBFF034B1B68002B35
:10470000E6D110BD704700BF300A0020A40A002087
:104710002C0A002008B5FFF7D7FF074B1B68012BB9
:10472000F9D94FF0E0234FF08052C3F8042DBFF3C6
:104730004F8FBFF36F8FEEE7CC05002070B50446B6
:104740000D46174B1E68174B18680430FFF746FBE1
:10475000B4F1FF3F0DD03444124B1B685C60A6429D
:1047600010D9114B18680F4B19680431FFF71DFB66
:1047700070BD002DEFD00B4B196804310B48FFF7CB
:1047800009FBF5E70A4B1868064B19680431FFF777
:104790000CFB084B1B68A342EAD9064B1C60E7E7F9
:1047A000B80A0020C0050020C8050020900A00209B
:1047B000C40500206C0A002030B587B00B9C7CB18A
:1047C0000C9DB5B15C250495049D5C2D1AD04FF06D
:1047D000500383F31188BFF36F8FBFF34F8FFEE752
:1047E0004FF0500383F31188BFF36F8FBFF34F8FE8
:1047F000FEE74FF0500383F31188BFF36F8FBFF3D1
:104800004F8FFEE7049D0C9D2C63022485F85940D0
:1048100000240394029505AC01940A9C0094FFF7D0
:104820005BFE0C98FFF7DEFE059807B030BD2DE962
:10483000F04385B00746884614461E46900000F0B7
:104840008DFE00B381465C2000F088FE0546B0B1C5
:10485000C0F83090E5B1002385F8593003930295F4
:104860000D9B01930C9B00933346224641463846EC
:10487000FFF732FE2846FFF7B5FE012005E0484667
:1048800000F0EAFEE6E74FF0FF3005B0BDE8F08348
:104890004FF0FF30F9E7000010B588B00024059410
:1048A000069407AA06A905A800F0DCFD059B029363
:1048B000069B019300942346079A18491848FFF76E
:1048C0007BFF184B186040B100F068FB012806D050
:1048D000B0F1FF3F18D008B010BD0020F6E74FF050
:1048E000500383F31188BFF36F8FBFF34F8F0E4BCD
:1048F0004FF0FF321A600D4B01221A600C4B002260
:104900001A6000F0E9FFE6E74FF0500383F31188E7
:10491000BFF36F8FBFF34F8FFEE700BF1C1E010870
:1049200015470008680A00206C0A00208C0A002045
:10493000B80A0020024A136801331360704700BFB1
:10494000340A0020014B1868704700BFB80A0020E5
:10495000F8B53A4B1B68002B69D1394B1D680135FE
:104960001D60C5B9374B1B681B6843B14FF050033E
:1049700083F31188BFF36F8FBFF34F8FFEE7314A88
:104980001168314B186810601960304A13680133A0
:104990001360FFF78BFD2E4B1B68AB423DD9002700
:1049A0002C4B1B68DB6A03EB83039A002A4B9B5852
:1049B000012B00D90127294B1B68002B3CD0012774
:1049C0003AE001271F4B1B681B6843B31D4B1B6854
:1049D000DB68DC6863689D4226D3261D3046FFF7FE
:1049E000FDF9A36A1BB104F11800FFF7F7F9E36AB8
:1049F0001B4A1268934201D9194A136003EB8303DF
:104A00009A00314614481044FFF7C4F9E26A114B8A
:104A10001B68DB6A9A42D4D2D4E70027D2E70C4B5A
:104A20004FF0FF321A60BBE7094A1360B8E70D4A3E
:104A300013680133136000273846F8BD340A00209C
:104A4000B80A0020C4050020C8050020700A002014
:104A50006C0A0020C0050020CC050020BC0A002004
:104A60003C0A0020740A002038B5354B1B6843B956
:104A70004FF0500383F31188BFF36F8FBFF34F8F55
:104A8000FEE700F08FFE2E4B1A68013A1A601B6891
:104A9000002B4FD12B4B1B680BB900244BE000249B
:104AA000294B1B681BB3284BDB68DC6804F118003A
:104AB000FFF794F9251D2846FFF790F9E06A234B8C
:104AC0001B68984201D9214B186000EB80002946F1
:104AD0001F4B03EB8000FFF75DF9E26A1D4B1B687B
:104AE000DB6A9A42DCD31C4B01221A60D8E70CB176
:104AF000FFF7DCFC194B1C6884B9174B1C68D4B158
:104B00004FF0E0234FF08052C3F8042DBFF34F8FD6
:104B1000BFF36F8F01240EE0013C07D0FFF718FFB1
:104B20000028F9D00C4B01221A60F5E70B4B00224C
:104B30001A60E2E7002400F057FE204638BD00BFAF
:104B4000340A00202C0A0020780A00203C0A0020A9
:104B5000CC050020C0050020BC0A0020740A0020FB
:104B600010B5A8B10446104B1B6843B14FF0500379
:104B700083F31188BFF36F8FBFF34F8FFEE7FFF70B
:104B8000D9FE00212046FFF7D9FDFFF76DFF48B998
:104B90004FF0E0234FF08052C3F8042DBFF34F8F46
:104BA000BFF36F8F10BD00BF340A00201F4B1B687E
:104BB0001BB11F4B01221A6070471D4B00221A6067
:104BC0001C4B1B6803EB83018A001B498A585AB9A6
:104BD0000BB1013BF6E74FF0500383F31188BFF3AD
:104BE0006F8FBFF34F8FFEE703EB830082000A4411
:104BF00050684068506003EB830C4FEA8C02083227
:104C0000114488420BD003EB830291000A4A0A4404
:104C10005268D168094A1160064A136070474068BB
:104C200062469100044A0A445060ECE7340A0020CE
:104C3000BC0A00203C0A0020CC050020C005002052
:104C400058B110B50C46094A11681831FFF7ADF894
:104C500001212046FFF772FD10BD4FF0500383F392
:104C60001188BFF36F8FBFF34F8FFEE7C0050020A1
:104C700038B570B10D4614460A4A11681831FFF76D
:104C800089F80CB14FF0FF3521462846FFF756FD55
:104C900038BD4FF0500383F31188BFF36F8FBFF31C
:104CA0004F8FFEE7C005002038B5C368DC6824B329
:104CB00004F118052846FFF791F8184B1B682BBB29
:104CC000251D2846FFF78AF8E06A154B1B689842B5
:104CD00001D9134B186000EB80002946114B03EB00
:104CE0008000FFF757F8E26A0F4B1B68DB6A9A42B5
:104CF00011D901200D4B186038BD4FF0500383F3DC
:104D00001188BFF36F8FBFF34F8FFEE72946084826
:104D1000FFF740F8E7E70020EEE700BF340A002085
:104D20003C0A0020CC050020C0050020BC0A002061
:104D3000780A002060B110B5044600F033FD094B3D
:104D40001B682360084B1B68636000F04DFD10BDBD
:104D50004FF0500383F31188BFF36F8FBFF34F8F72
:104D6000FEE700BF700A0020B80A0020034B1B6852
:104D70000360034B1B684360704700BF700A00204C
:104D8000B80A0020F8B5C8B10C460546F9B100F0E4
:104D900009FD1B4B19686B68C81A2268B2F1FF3F06
:104DA00026D0184E36682F68B74201D08B4224D9DE
:104DB000824215D80023236001241AE04FF05003EB
:104DC00083F31188BFF36F8FBFF34F8FFEE74FF070
:104DD000500383F31188BFF36F8FBFF34F8FFEE74C
:104DE0005B1A134423602846FFF7C0FF002400E04D
:104DF000002400F0F9FC2046F8BD0124F9E700BFCB
:104E0000B80A0020700A0020014B01221A60704786
:104E1000BC0A0020054B1B6833B1054B1B680BB166
:104E20000020704702207047012070478C0A002044
:104E3000340A002000283BD038B504461E4B1B68BE
:104E4000834208D04FF0500383F31188BFF36F8F74
:104E5000BFF34F8FFEE7036D43B94FF0500383F369
:104E60001188BFF36F8FBFF34F8FFEE7013B0365E0
:104E7000C16AC26C91421DD00BB1002038BD051D26
:104E80002846FEF7ABFFE06CE062C0F13803A36197
:104E90000A4B1B68984201D9084B186000EB800050
:104EA0002946074B03EB8000FEF774FF0120E5E77E
:104EB000002070470020E1E7C00500203C0A0020E8
:104EC000CC050020064B1A6813682BB90123036038
:104ED00023B9D368186870470023F8E700207047AB
:104EE000C00A002008B54160006191420CD8D21A76
:104EF00083699A4201D3012008BD011D094B18683E
:104F0000FEF753FF0020F7E79A4201D2994206D2FA
:104F1000011D054B1868FEF748FF0020ECE7012053
:104F2000EAE700BFC40A0020C00A002030B583B001
:104F300000F038FC114B1B681BB100F055FC03B0AE
:104F400030BD0F4D2846FEF717FF0E4C2046FEF7EA
:104F500013FF0D4B1D600D4B1C60002300930C4B89
:104F60000C4A10210A20FFF73FF8044B1860002874
:104F7000E3D00949FFF75CFADFE700BFE40B00204C
:104F8000680B00207C0B0020C00A0020C40A00200F
:104F9000940B0020C80A0020241E010810B588B018
:104FA000FFF7C4FF124B1B68CBB100240594069495
:104FB00007AA06A905A800F061FA059B0293069BC3
:104FC0000193022300932346079A0A490A48FFF7F0
:104FD000F3FB0A4B186010B1012008B010BD4FF070
:104FE000500383F31188BFF36F8FBFF34F8FFEE73A
:104FF000E40B00202C1E010801530008E80B0020E0
:10500000B8B19C4603461848006858B300B585B04F
:1050100000910192029305291CDCFFF7FBFE022898
:1050200010D000231A4669460F480068FFF726F89B
:1050300015E04FF0500383F31188BFF36F8FBFF378
:105040004F8FFEE70023069A694607480068FFF77E
:1050500015F804E0002362466946FFF7D3F805B06F
:105060005DF804FB00207047E40B002070B582B0AF
:105070001B4B1B681A6862B3DB681E68DC68251D61
:105080002846FEF7ABFE236A2046984794F828305E
:1050900013F0040FECD0A36933449E4207D263603F
:1050A000246129460E4B1868FEF77FFEE0E70021D9
:1050B00000910B4632462046FFF7A2FF0028D7D1C9
:1050C0004FF0500383F31188BFF36F8FBFF34F8FFF
:1050D000FEE7044A106802490860136002B070BD20
:1050E000C00A0020C40A002038B50546FFF72AFC94
:1050F0000446074B1B68834205D800232B60044BF2
:105100001C60204638BDFFF7B1FF01232B60F6E796
:10511000900B002070B582B006460D46174909680D
:10512000C968CC68201DFEF759FE94F828C01CF011
:10513000040F08D12CF0010C84F828C0236A204603
:10514000984702B070BDA16933462A4631442046D3
:10515000FFF7C8FE0028F1D0002100910B4632462F
:105160002046FFF74DFF0028E8D14FF0500383F3AE
:105170001188BFF36F8FBFF34F8FFEE7C00A002087
:1051800070B582B006460C46FFF7D4FB01A8FFF7C6
:10519000ABFF019B33BB05460CB9B04219D224B119
:1051A000124A12681268DAB901242246711B104BA8
:1051B0001868FFF751F9FFF757FCA8B94FF0E02343
:1051C0004FF08052C3F8042DBFF34F8FBFF36F8FA2
:1051D0000AE0FFF749FC29463046FFF79BFF03E052
:1051E0001C46E2E7FFF740FC02B070BDC40A002095
:1051F000E40B002010B588B002E0049B002B0FDA0E
:10520000002204A93D4B1868FFF763F8002873D00B
:10521000049B002BF1DA07990698059B9847ECE769
:10522000069C636913B1201DFEF7D8FD03A8FFF7A4
:105230005BFF049B092BE3D8DFE803F0050505308D
:1052400037500505303794F8283043F0010384F8CF
:105250002830059BA169024619442046FFF742FE0B
:105260000028CDD0236A2046984794F8283013F0C0
:10527000040FC5D0A269002100910B460598024495
:105280002046FFF7BDFE0028BAD14FF0500383F34C
:105290001188BFF36F8FBFF34F8FFEE794F828306C
:1052A00023F0010384F82830AAE794F8283043F06B
:1052B000010384F828300599A16131B10346024603
:1052C00001442046FFF70EFE9AE74FF0500383F3A8
:1052D0001188BFF36F8FBFF34F8FFEE794F828302C
:1052E00013F0020F04D023F0010384F8283087E77D
:1052F000204600F0B1F983E708B010BDE40B0020B0
:1053000000B583B001A8FFF7DDFD0199FFF738FF75
:10531000FFF770FFF6E708B54FF0E0231B69FFF7D2
:1053200079FD012800D108BD00F0ACFAFBE70000D0
:10533000EFF305832BB9064B186828B901221A60D0
:1053400070476FF0050070474FF0FF30704700BFA7
:10535000480E0020EFF3058373B90A4B1B68012B3D
:105360000DD110B50024084BDC77064B02221A60E1
:10537000FFF792FA204610BD6FF0050070474FF01E
:10538000FF307047480E002000ED00E0F0B587B018
:1053900000240594EFF3058474BB68B322B3156849
:1053A000936903B918235C1E372C49D8546814F04C
:1053B000010F47D156696EB14FEA960C94682CB133
:1053C000D7685B2F02D9176907B1C6B92CB14FF066
:1053D000FF340EE04FF0800CF0E7D4688CB914690C
:1053E00094B14FF0FF3404E01546002418234FF029
:1053F000800C012C0AD0ACB1059807B0F0BD012497
:10540000F7E74FF0FF34F4E70024F2E714699268FD
:105410000292019400930B4662462946FFF7CCF9AD
:105420000590E9E705AA019200930B461FFA8CF25A
:105430002946FFF7FCF90128DED000230593DBE7BE
:105440000020DAE70020D8E708B5EFF3058333B989
:1054500008B9002008BDFFF783FB0020FAE76FF0D2
:105460000500F7E7034B0360034B0B6080231360D9
:10547000704700BFEC0D0020EC0B0020034B0360D5
:10548000034B0B604FF48073136070474C12002085
:105490004C0E0020124A12F0070F1ED0D11D21F031
:1054A0000701C1F5705313440A460E4802600021FB
:1054B00041601344083B23F007030B480360596025
:1054C0001960991A51601360084B1960084B1960F4
:1054D000084B4FF000421A6070474FF47053E4E7F6
:1054E000AC120020C04E0020A8120020B44E0020B4
:1054F000B04E0020AC4E0020164B1A461B6883426B
:10550000FBD3516802EB010C844509D0416800EBE4
:10551000010C634509D00360904219D010607047B8
:105520004068014451601046F0E710B40A4C24680A
:10553000A3420BD05B681944416013681B68036089
:10554000904200D010605DF8044B70470460F7E7AC
:10555000704700BFC04E0020A812002070B505465D
:10556000FFF7E8F9364B1B68A3B1364B1B681D42A9
:105570004ED135B1083515F0070F02D025F00705DB
:105580000835002D46D0304B1B68AB4251D32F4A13
:10559000146804E0FFF77EFFE7E722461C466368D5
:1055A000AB4202D22368002BF7D1254B1B68A342E4
:1055B00041D0166808362368136063685B1B102BA4
:1055C00010D9601910F0070F08D04FF0500383F383
:1055D0001188BFF36F8FBFF34F8FFEE743606560A5
:1055E000FFF78AFF626818490B689B1A0B6018491D
:1055F00009688B4201D216490B60124B1B6813439A
:10560000636000232360134A13680133136002E0D0
:10561000002600E00026FFF727FA16F0070F0CD04F
:105620004FF0500383F31188BFF36F8FBFF34F8F99
:10563000FEE70026EFE70026EDE7304670BD00BF2D
:10564000A8120020AC4E0020B04E0020C04E00201A
:10565000B44E0020B84E0020002834D038B504469F
:10566000A0F1080550F8043C174A1268134208D10B
:105670004FF0500383F31188BFF36F8FBFF34F8F49
:10568000FEE750F8081C41B14FF0500383F3118836
:10569000BFF36F8FBFF34F8FFEE723EA020340F89B
:1056A000043CFFF747F954F8041C084A13680B44FC
:1056B00013602846FFF720FF054A13680133136083
:1056C000FFF7D2F938BD7047AC4E0020B04E002035
:1056D000BC4E002082B0002301930D4B1B68B3F138
:1056E000FF3F08D04FF0500383F31188BFF36F8F53
:1056F000BFF34F8FFEE74FF0500383F31188BFF3E2
:105700006F8FBFF34F8F019B002BFCD002B070470F
:105710001000002008480068006880F308884FF0F7
:10572000000080F3148862B661B6BFF34F8FBFF3F9
:105730006F8F00DF00BF000008ED00E0DFF80C0015
:10574000016841F4700101607047000088ED00E0DD
:105750004FF0807340F8043C21F0010140F8081C30
:10576000054B40F80C3C40F8202C6FF0020340F849
:10577000243C4438704700BFD556000800000000A4
:10578000074B19680868B0E8F04F80F30988BFF349
:105790006F8F4FF0000080F311887047AFF30080E7
:1057A000C00500204FF0500383F31188BFF36F8FC3
:1057B000BFF34F8F0B4A136801331360012B00D0E6
:1057C00070474FF0E023D3F8043D13F0FF0FF7D0FC
:1057D0004FF0500383F31188BFF36F8FBFF34F8FE8
:1057E000FEE700BF10000020094B1B6843B94FF0D3
:1057F000500383F31188BFF36F8FBFF34F8FFEE722
:10580000013B034A13600BB983F31188704700BF53
:105810001000002000000000000000000000000058
:10582000EFF30980BFF36F8F154B1A681EF0100F4E
:1058300008BF20ED108A20E9F04F10602DE9090023
:105840004FF0500080F31188BFF34F8FBFF36F8F7D
:10585000FFF7ACF94FF0000080F3118809BC19681C
:105860000868B0E8F04F1EF0100F08BFB0EC108AC7
:1058700080F30988BFF36F8F704700BFAFF30080DC
:10588000C005002008B54FF0500383F31188BFF323
:105890006F8FBFF34F8FFFF75BF828B14FF0E02316
:1058A0004FF08052C3F8042D002383F3118808BD04
:1058B0004FF0E022002313619361054B1B680549FB
:1058C000A1FB03139B09013B53610723136170473D
:1058D0000C000020D34D62104FF0E023D3F8002DD0
:1058E0003D4B9A421CD04FF0E023D3F8002D3B4BA8
:1058F0009A421ED030B583B0394B1A78D2B2019299
:10590000FF221A701B78DBB28DF803309DF803304C
:1059100003F05003334A1370334B07221A601BE025
:105920004FF0500383F31188BFF36F8FBFF34F8F96
:10593000FEE74FF0500383F31188BFF36F8FBFF37F
:105940004F8FFEE7284A1368013B13609DF8033030
:105950005B00DBB28DF803309DF8033013F0800F4D
:10596000F0D1214B1B68032B08D04FF0500383F379
:105970001188BFF36F8FBFF34F8FFEE71B021A4AE8
:10598000136003F4E0631360019BDBB2144A1370ED
:105990004FF0E024D4F8203D43F47003C4F8203DD8
:1059A000D4F8203D43F07043C4F8203DFFF780FF5A
:1059B00000250E4B1D60FFF7C1FED4F8343F43F0C5
:1059C0004043C4F8343FFFF7A5FEFFF7EFF8FFF7B9
:1059D00081FE284603B030BD71C20F4170C20F4135
:1059E00000E400E0C84E0020CC4E00201000002053
:1059F000EFF305830F2B0FD9114A9B5CDBB2114AE1
:105A000012789A4208D94FF0500383F31188BFF3FC
:105A10006F8FBFF34F8FFEE74FF0E023D3F80C3DBD
:105A200003F4E063084A1268934208D94FF0500328
:105A300083F31188BFF36F8FBFF34F8FFEE770477B
:105A4000F0E300E0C84E0020CC4E0020124A12F0D5
:105A5000070F1ED0D11D21F00701C1F5705313446B
:105A60000A460E480260002141601344083B23F0BF
:105A700007030B48036059601960991A516013605D
:105A8000084B1960084B1960084B4FF000421A6030
:105A900070474FF47053E4E7D44E0020E08A0020B2
:105AA000D04E0020DC8A0020D88A0020D48A002032
:105AB000164B1A461B688342FBD3516802EB010C5C
:105AC000844509D0416800EB010C634509D00360AF
:105AD000904219D0106070474068014451601046F0
